:1000000000200020F9000000FD160000C9160000C5
:10001000C9160000C9160000C9160000C916000064
:10002000C9160000C9160000C9160000FD16000020
:10003000FD160000C9160000FD160000B9160000EC
:10004000FD160000FD160000FD160000FD16000064
:10005000FD160000FD160000FD160000FD16000054
:10006000FD160000FD160000FD160000DD0F00006B
:10007000FD160000FD160000FD160000FD16000034
:10008000951F0000FD160000F5300000FD16000071
:1000900081340000FD160000FD160000FD16000072
:1000A000FD160000FD160000FD160000FD16000004
:1000B000FD160000FD160000FD160000FD160000F4
:1000C000FD160000FD160000FD16000011220000C4
:1000D000FD160000FD160000FD160000FD160000D4
:1000E000FD160000FD160000FD160000FD160000C4
:1000F000FD160000FD160000564B4CF2205210B5C4
:100100001A804DF628121A8000BF00BF01F0FAFADB
:10011000514B524A1A60524A5A60A3F53043283B69
:100120001A6812F4807204D14E490A604FF4A85242
:100130001A604D4B1A78110703D51A7842F008025D
:100140001A704A4B2A221A700023494A49499818C2
:10015000884204D24849595899500433F5E7474A30
:10016000474B9A424FF0000302D242F8043BF7E7B4
:100170004449454A595899500433F82BF8D1434B18
:10018000802103F8011B42498B42F9D1414B1A608F
:10019000414B0A221A70A3F6FF7324221A70A02280
:1001A00003F8012C3D4B1A789207FBD51A78D40638
:1001B000FCD41A7802F00C02082AFAD1384B032238
:1001C0001A7040225A70354B1A789006FBD51A786F
:1001D0005106FCD5334B344A1A6002225A60334B25
:1001E00020221A702D4B1B7803F00C030C2BF9D135
:1001F0002F4B304A1A60304B45F6BF521A6000222E
:100200005A60072243F8042C2C4AC3F80C2D62B61E
:1002100001F09EFC134B1B68DA0705D5284801F056
:1002200019FC284B284A1A60284B1B785B0609D515
:10023000244C254A2368934204D1214801F00AFC4A
:100240000023236004F0F6F801F062FA02F06AFC81
:10025000FEE700BF0E20054038800440823F0400C6
:100260000100002B14D0034002D0074000E00740FB
:1002700060E5FF1F0CE6FF1F004800000CE6FF1FB3
:100280004CEAFF1F0000000000E1FF1F00E400E057
:100290002EE400E008ED00E0005006400640064075
:1002A0000440064044800440000003330040064000
:1002B00004800440C010050014E000E0000020208D
:1002C0002494F4551CE00340A5C3945A00F0074061
:1002D000FFFFFFFFFFFFFFFFFFFFFFFFFFFFFFFF2E
:1002E000FFFFFFFFFFFFFFFFFFFFFFFFFFFFFFFF1E
:1002F000FFFFFFFFFFFFFFFFFFFFFFFFFFFFFFFF0E
:10030000FFFFFFFFFFFFFFFFFFFFFFFFFFFFFFFFFD
:10031000FFFFFFFFFFFFFFFFFFFFFFFFFFFFFFFFED
:10032000FFFFFFFFFFFFFFFFFFFFFFFFFFFFFFFFDD
:10033000FFFFFFFFFFFFFFFFFFFFFFFFFFFFFFFFCD
:10034000FFFFFFFFFFFFFFFFFFFFFFFFFFFFFFFFBD
:10035000FFFFFFFFFFFFFFFFFFFFFFFFFFFFFFFFAD
:10036000FFFFFFFFFFFFFFFFFFFFFFFFFFFFFFFF9D
:10037000FFFFFFFFFFFFFFFFFFFFFFFFFFFFFFFF8D
:10038000FFFFFFFFFFFFFFFFFFFFFFFFFFFFFFFF7D
:10039000FFFFFFFFFFFFFFFFFFFFFFFFFFFFFFFF6D
:1003A000FFFFFFFFFFFFFFFFFFFFFFFFFFFFFFFF5D
:1003B000FFFFFFFFFFFFFFFFFFFFFFFFFFFFFFFF4D
:1003C000FFFFFFFFFFFFFFFFFFFFFFFFFFFFFFFF3D
:1003D000FFFFFFFFFFFFFFFFFFFFFFFFFFFFFFFF2D
:1003E000FFFFFFFFFFFFFFFFFFFFFFFFFFFFFFFF1D
:1003F000FFFFFFFFFFFFFFFFFFFFFFFFFFFFFFFF0D
:10040000FFFFFFFFFFFFFFFFFFFFFFFFFEFFFFFFFD
:1004100010B5054C237833B9044B13B10448AFF33E
:1004200000800123237010BD0CE6FF1F00000000B8
:100430000048000008B5064B1BB106480649AFF35B
:1004400000800648036813B1054B03B1984708BD07
:10045000000000000048000010E6FF1F0CE6FF1F30
:100460000000000013B50F4C0F4800F095FD20462A
:1004700000F030FF204600F067FF2046802100F0AA
:1004800071FF204600F082FF0D20012101F012FBD8
:10049000012300930548064B1D21052200F022F997
:1004A00002B010BD49E6FF1FECE6FF1F2CE6FF1F60
:1004B000F644000007B560B9074B1A6802A94FF46B
:1004C0007A73B2FBF3F341F8043D0120042200F0FB
:1004D00075F903B05DF804FB8CE7FF1F7FB508BB1F
:1004E000114C124923681F225B682046984720461A
:1004F00002F020FB0E4800F0B7FF064603F074FF41
:1005000004AD45F8040D304603F002FB0B46022112
:1005100002460091204602F057FB012029460422A2
:1005200000F04CF904B070BD10E9FF1FD644000084
:1005300049E6FF1F07B558B9074801F009F803F06D
:1005400053FF02A9042241F8040D012000F036F9FE
:1005500003B05DF804FB00BF49E6FF1F012810B59A
:100560000C4611D101290FD1084B197800314FF0F9
:100570000D0018BF012101F07DFA002120460A4636
:10058000BDE8104000F01AB910BD00BF2CE6FF1FF7
:1005900030B585B000F018F978B1204B204C1D68BB
:1005A0004FF47A73B5FBF3F523689D4205D941F208
:1005B0000100022100F005F9256002A80DF10A01F1
:1005C00003AA0DF1070300F0ABF828B3BDF808202B
:1005D00041F201039A421FD1BDF80A30013B032BBF
:1005E0001AD8DFE803F01402080E9DF807000399FB
:1005F000FFF760FF10E09DF807000399FFF76EFF1B
:100600000AE09DF807000399FFF794FF04E09DF8C6
:1006100007000399FFF7A2FF05B030BD8CE7FF1F6D
:1006200028E6FF1F014800F053BE00BF49E6FF1F48
:1006300008B503284FD8DFE800F002202F39264BF9
:100640001B78A3B14EF20113B1F5614F08BF1946F3
:10065000480800F1377000F5D840B0FBF1F001F028
:10066000BDFA1E4B1A6842F020021A6008BD1C4BEE
:100670001878BDE8084000F0BDBB174B1B7823B1CC
:1006800049BBBDE8084001F009BC081C18BF0120A7
:10069000BDE8084000F0B1BB0F4B1B78C8B21BB1DE
:1006A000BDE8084001F052BB194610E00A4B18782B
:1006B00060B1062001F0D8FA002001F047FB01F0FC
:1006C000EDFB0020BDE8084001F0CEBA0121BDE8F5
:1006D000084000F093BB08BD55E6FF1F44A004404E
:1006E00054E6FF1F70B50A4C9DF810600125257077
:1006F000084D094C28602160084811461A463346C7
:1007000000F046F928682168BDE8704000F056B94D
:1007100055E6FF1F50E6FF1F4CE6FF1F31060000A5
:100720002DE9F043074685B0884691461D460024D2
:100730001E4E337813B101F0CDFB01E000F05BFBFE
:1007400048B3337813B101F0D5FB01E000F057FB5B
:10075000174B1B680DF10F028DE80C00C0B2394633
:1007600042464B4600F072F998B1124B1868124B92
:10077000196800F023F99DF80F00012807D003D372
:1007800002280FD128700DE000232B700AE028709A
:1007900009E00124CCE734B9054B186800F016FBDA
:1007A000204600E0012005B0BDE8F08355E6FF1FBC
:1007B0008CE7FF1F50E6FF1F4CE6FF1F92B200F0D0
:1007C0000DB900F0D3BAFFFF014B186800F0FEBA74
:1007D0008CE7FF1F0B78094A10B5040984EA13144B
:1007E000145D84EA0313DBB280EA131000F00F00FB
:1007F000125C82EA03130B7010BD00BFF8440000C6
:10080000002303707047F0B500241C7014700F783B
:1008100005787E2F04D10122A5B104701A7011E071
:100820007D2F4FF0010605D115B104701E7007E051
:10083000067005E01DB187F020070F700470167078
:100840000020F0BD1046F0BD0378A3F17D02012A1F
:100850009DBF83F020030370012000207047FFFF3D
:1008600008B5034B02201B687E21984708BD00BFD6
:1008700094E6FF1F13B502AC04F8010DFFF7AAFFC1
:100880002046FFF7E1FF064C18B1236802207D21C6
:10089000984723689DF807100220984702B010BDC2
:1008A00094E6FF1F2DE9F34702AC1D46DFF8A08058
:1008B0009DF82C70002304F8013D82460120D8F8F1
:1008C00000300E46014691469847FFF7C9FF0120C8
:1008D0002146FFF7CFFF0FB1042000E03846214644
:1008E000FFF7C8FF00202146FFF7C4FF0020214684
:1008F000FFF7C0FF00202146FFF7BCFF504621460E
:10090000FFF7B8FF00202146FFF7B4FFB1444E4582
:1009100005D016F8010B2146FFF7ACFFF7E70A9B5D
:10092000EE18B54205D015F8010B2146FFF7A2FFDE
:10093000F7E79DF807002146FFF79CFFFFF790FFC0
:10094000D8F8003001200021984702B0BDE8F087B8
:1009500094E6FF1F0B4A1178814210B503460FD071
:10096000094C0A49107051F8231022680020904762
:1009700001200146236898472368012000219847F9
:1009800010BD00BF61E5FF1F94E6FF1F0845000092
:1009900010B5064C20600648017006490A60064AF8
:1009A00013700020BDE81040FFF7D4BF94E6FF1F8E
:1009B00060E5FF1F90E6FF1F8CE6FF1F70B5064C39
:1009C00006460D4620460021242203F074FD012333
:1009D000E660A561A37770BD58E6FF1FF0B5194D1D
:1009E0002C7887B00B4617464CB36E882EB9AB886F
:1009F00013BB00930193022019E0FE2E1ED90122A1
:100A00008DF80C20AA88ADF80F200F4AADF80D60C4
:100A100012788DF8112080F0010000228DF812006C
:100A20000192ADF813700097032003A90922FFF784
:100A300039FF00232B7002E0344600E000242046FA
:100A400007B0F0BD86E6FF1F80E6FF1F2DE9F04FDF
:100A5000A54C8FB0A67F069388461746199D8DF842
:100A60001F00002E00F05D8100238DF8273004F177
:100A700020000DF126030DF11F010DF12702FFF7F4
:100A8000C2FE9DF82630814613B10123637748E00A
:100A9000B0B1637F002BF8D12378012BF5D16368C7
:100AA0009907F2D5DB08F0D12389013B9BB2022BD9
:100AB000EBD86369072BE8D9237C002BE5D130E024
:100AC0009DF827306BB363699DF81F00062B0ED984
:100AD000A269D91F914202D9012363771BE021B19A
:100AE000E268217F134403F8081C207713E0042BED
:100AF00007D9053B2289DB0000FA03F31343238166
:100B000009E03BB1013B6268DB0000FA03F31A43E2
:100B1000626000E020706369744901336361FFF72C
:100B200059FE637F1BB9B9F1000F00F0F5806E4AE2
:100B3000039202F12000FFF763FE039AB9F1000F60
:100B400000F0EA80537F13B1D06891695CE01089AE
:100B5000DFF8BC9101285AD1D168C9F800504A7811
:100B6000012A0FD16248067862480078864205BFA4
:100B70008B70614B8A701A700023009301930120DF
:100B8000032230E0022A31D15C4A10785C4A1768AF
:100B9000DEB286420BD2013307EB430636F8026C15
:100BA000002EF5D10223ADF82C30012300E0002304
:100BB00017680022D6B286420ED2013207EB4206F7
:100BC00036F8026C002EF5D00EA85A1C00EB430339
:100BD000032023F80C0CD3B25B0000930023019395
:100BE000012002220BABFFF75DFE0BE0032A09D1C7
:100BF00005268E7000930193FFF754FE3D4B187845
:100C0000FFF7A8FEE068A169FFF7D8FE84E003289B
:100C100047D1D268106851680BAB03C3117A1970C1
:100C2000BDF833A0104602F10901524603F028FC3A
:100C30009DF83230002B40F08280DFF8D8B0BDF84C
:100C40002D309DF83110BDF82F208BF8001040F2A8
:100C5000011B5B45ADF81030944690B272D102286A
:100C600011D128490988002969D0ADF828102649F2
:100C70000988ADF82A10254901208A8008704B8028
:100C800004220AA90AE001285CD120494B801B4BB1
:100C90008A801A781A4B087019685200FFF79EFE76
:100CA0004DE0A8F800303B80536952680699083B34
:100CB000D2070B6007D51BB1189A0223137005E009
:100CC0001898037002E0189901230B700023A37792
:100CD0000E4BB8F800205A803A889A800122C9F851
:100CE00000501A703AE000BF58E6FF1F68E6FF1F89
:100CF00061E5FF1F60E5FF1F98E6FF1F8CE6FF1F01
:100D000090E6FF1F82E6FF1F84E6FF1F86E6FF1FB7
:100D10007CE6FF1F80E6FF1F124A13689D4202D245
:100D2000156000261AE0ED1A42F210729542F8D9C9
:100D30000020FFF70FFE0C4B00261E700EE0C9F8D6
:100D400000505FE7069B1898BDF81020A8F8002017
:100D5000A7F800C0C3F800A00170B7E730460FB095
:100D6000BDE8F08F7CE6FF1F98E6FF1F144B37B5F8
:100D7000144C1880144B00284FF001001980236890
:100D8000014614BF0325022598472368032000214C
:100D900098472368032000219847236803200021F7
:100DA00098472368012000219847002101238DE8FE
:100DB0000A0028460A460B46FFF774FD03B030BD13
:100DC00082E6FF1F94E6FF1F84E6FF1F074B1B68A8
:100DD00042F21072C01A904210B5054C04D900209E
:100DE000FFF7B8FD00232370207810BD7CE6FF1FBD
:100DF00098E6FF1F704700207047704770474FF01C
:100E0000FF307047044BD878044B1A68C0B2904248
:100E100018BF1860704700BF0060064064E5FF1F00
:100E200008B5FFF7EFFF8307FBD5024B0222DA700C
:100E300008BD00BF00600640094B1B7813B9094B81
:100E40001B782BB1084A1378202B03D90123037197
:100E500000207047581C1070044A0120D15470477C
:100E6000FEE6FF1FC1E6FF1FFFE6FF1FA0E6FF1F14
:100E70007047FFFF024B1878024B1B78C01A70476F
:100E8000FDE6FF1FFCE6FF1F064A074913780978B5
:100E9000994204D9591C1170044AD05C70474FF034
:100EA000FF307047FCE6FF1FFDE6FF1FC2E6FF1F95
:100EB000054B064A1B7812789A4286BF044AD05CDA
:100EC0004FF0FF30704700BFFCE6FF1FFDE6FF1F3D
:100ED000C2E6FF1F70B50E4B1B78144613B90D4BBD
:100EE0001B7893B10C4A1578C5F121039C42164634
:100EF00002D9012202711C46084822462844254492
:100F000000F040FB3570204670BD184670BD00BF34
:100F1000FEE6FF1FC1E6FF1FFFE6FF1FA0E6FF1F63
:100F200010B5114BDB7803F0200303F0FF045BB92D
:100F3000122000F077FD0D4B1B68A3B10C4A147012
:100F40000C4A1078984710BD0B4A13780133DBB276
:100F5000012B137002D8094B1B7823B91220BDE86E
:100F6000104000F05FBD10BD006006409CE6FF1F12
:100F7000FCE6FF1FFDE6FF1FE8E6FF1FC1E6FF1FBF
:100F8000002202714FF47A710273024A816002609A
:100F9000704700BF404500000C4B00221A700C4BFC
:100FA000196841F0400119600A4B0B499A704FF4DF
:100FB00019720A6041F8042C1F225A7002229A7199
:100FC00020225A7180229A70704700BFC1E6FF1F2D
:100FD00034800440006006400CA0044010B536493F
:100FE000CB78DBB213F0100F03F0400201D12AB925
:100FF0002CE01020C870002AF9D110BD03F00403C2
:1010000003F0FF012D4AC3B1002313702C4A137063
:101010002C4B1B68144603B1984723782A4A1BB906
:101020002749137001200870234BD0219970127842
:101030001A71264B01221A7039E001231370244BD8
:1010400019701D4BC0229A701B7930E01A4CA2789F
:1010500002F0100202F0FF01AAB113F001030ED159
:101060001A4917480A780078904203D9531C0B702C
:10107000154B9B5C2371104BD0229A7017E0C02354
:10108000A370237913E0134B032219701220124925
:1010900000F082FC0E4A217913781F2BC9B206D8C2
:1010A0000648007818B1581C10700C4AD154024BF5
:1010B0000222DA7010BD00BF0060064099E6FF1FF3
:1010C000FFE6FF1FE4E6FF1FA0E6FF1F00E7FF1F8C
:1010D000FDE6FF1FE8E6FF1F210F0000C2E6FF1F2D
:1010E000044B054A4900197001231370034A137019
:1010F000704700BFA0E6FF1FFEE6FF1FFFE6FF1FD1
:10110000F8B52B4B1222DA709A7892060F4601D569
:10111000B42218E0274B1C681D46FFF773FE00F051
:10112000200000F0FF0350B12B681B1B0F2BF4D9DC
:101130001F4B00229A7080229A700420F8BD1E4A2C
:1011400013701B4BB0229A70FFF75CFE8306FBD531
:1011500000251A4B1B78ECB2A3421FD9184B1A5D1D
:10116000134B1A71FFF74EFE860701D48006F9D49F
:101170000F4E0223F370FFF745FEC10601D482062D
:1011800003D48023B370042009E0C30705F10105EF
:10119000DFD5002C0CBF0220032001E0002017B196
:1011A000034B80229A70074B00221A70F8BD00BFD3
:1011B000006006408CE7FF1FC1E6FF1FFFE6FF1F30
:1011C000A0E6FF1FFEE6FF1F2DE9F8431446304A54
:1011D0001F46002313702F4A13702F4B0D46122108
:1011E000D970997811F0200F904601D0B4220BE00D
:1011F000FFF708FE00F0200000F0FF020028F7D102
:10120000264B1A70244BB0229A706B0043F00103F6
:10121000214DDBB22B71FFF703FEFFF7F3FD10F05A
:10122000110004D08023AB700020BDE8F88334B9EE
:10123000002F0CBFA0238023AB70BDE8F883012CE6
:101240000CBFA823A023AB702B79DFF8589026465B
:10125000012E114D0BD0013EFFF7E2FDF6B2012E3B
:1012600004BFA823AB702B7909F8013FF0E7FFF723
:10127000D7FD661EB023AB70F6B2094B2A799A559A
:101280000FB18023AB7088F800402046BDE8F8839A
:10129000FCE6FF1FFDE6FF1F00600640C1E6FF1FE2
:1012A000C2E6FF1FC1E6FF1FC9B2D2B20123FFF79A
:1012B0008BBFC9B2FFF714BF0148FFF761BE00BF83
:1012C000ECE6FF1F08B50368C9B21B68984708BD64
:1012D0007047FFFF0148FFF75FBE00BFECE6FF1F4E
:1012E00038B50C4C0D4620466021FFF7E2FF294639
:1012F0002046FFF7A1FD20460021FFF701FF6021F6
:1013000001222046FFF7D0FF2046FFF7BDFDC0B207
:1013100038BD00BFECE6FF1F70B50A4C0D462046F5
:1013200060211646FFF7C5FF29462046FFF784FDDA
:1013300031462046FFF780FD20460121BDE8704080
:10134000FFF7DEBEECE6FF1F10B526210446FFF7CF
:10135000C7FF60F07F0226212046D2B2BDE81040D0
:10136000FFF7DABF38B5072934BF0D460725262118
:101370000446FFF7B5FF00F0C70040EAC50226218A
:101380002046D2B2BDE83840FFF7C6BF132107227E
:10139000FFF7C2BF10B526210446FFF7A1FF2621A3
:1013A00000F0FD022046FFF7B7FF20462621FFF799
:1013B00097FF40F0020226212046D2B2BDE810403D
:1013C000FFF7AABF70B50546FFF7E4FF40F25924C6
:1013D00028460021FFF784FF830707D4013C01D191
:1013E0001D4870BD012000F09FFBF1E71B48602104
:1013F000FFF75FFF01211948FFF764FF002117483D
:10140000FFF77EFE154860210322FFF74DFF0328FA
:10141000E6D11248FFF738FD06461048FFF734FDC5
:1014200004460E48FFF730FDE4B20546F0B244EA48
:10143000002002F085FF0446C5F3031002F056FBBE
:101440000022074B02F0B8FB02F070FE0146204676
:1014500002F0C2FE70BD00BF00C079C4ECE6FF1F01
:101460000000B03FFFFFFFFF08B5FFF7ABFF02F042
:101470004FFB05A3D3E9002302F09EFB02F056FECA
:1014800008BD00BFAFF30080E544BB0A293F0A4016
:1014900070B500210546FFF723FF40F25924284686
:1014A0000021FFF71DFF830707D4013C01D1254828
:1014B00070BD012000F038FBF1E723486021FFF701
:1014C000F8FE04212048FFF7FDFE00211E48FFF72B
:1014D00017FE1D4860210222FFF7E6FE0228E6D132
:1014E0001948FFF7D1FC04461748FFF7CDFC064624
:1014F0002846FFF74FFF14F0800FF5B2E4B202D197
:101500002046002407E005EB04256D42C5F30720C3
:10151000012405F0F00502F013FF0646280902F049
:10152000E5FA0022094B02F047FB02F0FFFD0146FD
:10153000304602F051FE01461CB1002002F04AFE86
:1015400070BD70BD00C079C4ECE6FF1F0000B03F65
:1015500008B5FFF79DFF02F0DBFA0022064B02F010
:101560002BFB0022054B02F051FC0022044B02F041
:1015700071F902F0DBFD08BD0000224000001440BC
:1015800000004040844641EA000313F003036DD19C
:10159000403A41D351F8043B40F8043B51F8043B36
:1015A00040F8043B51F8043B40F8043B51F8043B3D
:1015B00040F8043B51F8043B40F8043B51F8043B2D
:1015C00040F8043B51F8043B40F8043B51F8043B1D
:1015D00040F8043B51F8043B40F8043B51F8043B0D
:1015E00040F8043B51F8043B40F8043B51F8043BFD
:1015F00040F8043B51F8043B40F8043B51F8043BED
:1016000040F8043B51F8043B40F8043B51F8043BDC
:1016100040F8043B403ABDD2303211D351F8043B7C
:1016200040F8043B51F8043B40F8043B51F8043BBC
:1016300040F8043B51F8043B40F8043B103AEDD22B
:101640000C3205D351F8043B40F8043B043AF9D27C
:10165000043208D0D2071CBF11F8013B00F8013B4F
:1016600001D30B8803806046704700BF082A13D35C
:101670008B078DD010F003038AD0C3F10403D21A74
:10168000DB071CBF11F8013B00F8013B80D331F8A8
:10169000023B20F8023B7BE7043AD9D3013A11F828
:1016A000013B00F8013BF9D20B7803704B78437093
:1016B0008B78837060467047024B1A6801321A605B
:1016C000704700BF8CE7FF1F08B50B4C2368580319
:1016D00001D500F09DFD2368590501D500F05AFCA5
:1016E00023681A0501D501F005FD2368DB04ECD55C
:1016F00001F0C6FEE9E700BF3480044008B5FFF7FB
:10170000E3FFFFFF014B10221A80704700200540C5
:101710007047FFFFEFF313839BB9EFF3108098B985
:10172000EFF3058323B10F2B04D9084A985C01E03D
:101730004FF48070EFF311833BB1834238BF1846FA
:1017400070474FF0FF30704718467047F0E300E0F5
:101750001F4B10B51C681C60E00304D51D4B1A68B4
:101760000AB11B689847A10304D51A4B5A680AB1FD
:101770005B689847E20704D5164B1A6C0AB11B6CDC
:101780009847A30704D5134B5A6C0AB15B6C984772
:10179000200704D50F4B9A6C0AB19B6C98476107E0
:1017A00004D50C4BDA6C0AB1DB6C9847220304D5E4
:1017B000084B5A6E0AB15B6E9847630306D5054B1A
:1017C000D3F8802012B1D3F88030984710BD00BF05
:1017D000A0A0044004E7FF1F2C4B10B51C681C6040
:1017E000200704D52A4B5A6A0AB15B6A9847E1067A
:1017F00004D5274B9A6A0AB19B6A9847620604D5BA
:10180000234BDA6A0AB1DB6A9847230604D5204BDA
:101810001A6B0AB11B6B9847A00604D51C4B5A6B78
:101820000AB15B6B9847E10704D5194BDA6B0AB133
:10183000DB6B9847A20704D5154B9A6D0AB19B6DD7
:101840009847630704D5124BDA6D0AB1DB6D9847F0
:10185000A00504D50E4BDA6E0AB1DB6E9847E105A0
:1018600004D50B4B1A6F0AB11B6F9847620504D55C
:10187000074B5A6F0AB15B6F9847230504D5044B99
:101880009A6F0AB19B6F984710BD00BFA0B004408B
:1018900004E7FF1F1E4B10B51C681C60E00704D551
:1018A0001C4B9A680AB19B689847210604D5194BCE
:1018B0005A690AB15B699847E20604D5154B9A69E3
:1018C0000AB19B699847630704D5124BDA690AB1DC
:1018D000DB699847200704D50E4B1A6A0AB11B6AC8
:1018E0009847A10704D50B4B9A6B0AB19B6B98479D
:1018F000A20604D5074B1A6D0AB11B6D9847630603
:1019000004D5044B5A6D0AB15B6D984710BD00BFFA
:10191000A0C0044004E7FF1F114B10B51C681C60F9
:10192000E00404D50F4BDA680AB1DB689847A104DC
:1019300004D50C4B1A690AB11B699847A20604D555
:10194000084B1A6E0AB11B6E9847E30606D5054B85
:10195000D3F8842012B1D3F88430984710BD00BF6B
:10196000A090044004E7FF1F094B10B51C681C60E1
:10197000A20704D5074B9A6E0AB19B6E9847E307FE
:1019800004D5044BDA6F0AB1DB6F984710BD00BF76
:10199000A0D0044004E7FF1F212830B531D8042A25
:1019A0002FD8DFE802F00709050B03000B2306E040
:1019B0000A2304E0082302E00C2300E00923114A73
:1019C000114D02EBC0025468104AC2F8E050104DAD
:1019D000C2F8E4500F4DC2F8E8500F4DC2F8EC5079
:1019E0000E4DC2F8F05072B622680D4D22F47022EE
:1019F000226042F0807242EA034345F820102360DF
:101A000062B630BD584500001919000000E1FF1F03
:101A100051170000D917000095180000691900003F
:101A200004E7FF1F094B03EBC0035A6872B6136843
:101A300023F0877323F4803343F080731360044BE7
:101A4000002243F8202062B6704700BF58450000CE
:101A500004E7FF1F044B054900221A600A60044A8C
:101A6000106010221A60704714D0034004D0034065
:101A700000D00340212810B518D80D4A52F8303054
:101A800093F880423CB1012211B183F8802010BD4F
:101A900083F8002110BD02EBC00043681A6811B141
:101AA00042F0030201E022F002021A6010BD00BF02
:101AB00058450000212816D80B4A02EBC003012923
:101AC0005B6852F8302004D182F880124FF4A27281
:101AD00008E0002082F8800211B94FF4807201E022
:101AE00040F203121A6070475845000072B60B4B63
:101AF0000B491A680B4B1B68096862B6490102D58D
:101B0000322A88BF0133C2F5BB4218213F32B2FBF3
:101B1000F1F24FF47A7000FB0320704718E000E008
:101B200004ED00E08CE7FF1F38B50446FFF7DEFF49
:101B3000054664B1FFF7DAFF401BB0F57A7F03D3A7
:101B4000013C04D005F57A7501F0DCF8F2E738BD08
:101B50001B4B4FF4807210B51A604FF400721A607C
:101B60004FF480621A604FF400621A604FF48052A2
:101B70001A60144B144A154C00204BF6FF71186084
:101B80005960282313609360136193611362936219
:101B9000136393630822226004F5805404342060A8
:101BA0000B4801600B490B608B600B4B1A6001F016
:101BB000C9F80420FFF7B8FFBDE8104000F01EBED2
:101BC00004E100E0048003400C80034000800340F7
:101BD000089003400C90034000900340194B1A6892
:101BE00042F480621A60184A00231370174A137077
:101BF000174A1370174A1370174A1370174B40F2A5
:101C000013321A604FF451725A60154BC0F34432CC
:101C10001A70C0F347125A7000F01F00042202210C
:101C200098729A70D9745A7588221A743C22DA70A4
:101C30000C4B40221A70A3F544734FF480321A60A3
:101C4000704700BF3480044012E8FF1F91E7FF1F78
:101C500018E8FF1F13E8FF1F90E7FF1F40A0044094
:101C600000A0064010E400E0134A937800F003015E
:101C700003F0EC030B43410748BF43F0100393709C
:101C800000F00F03042B0C4903D18B7943F0400380
:101C90008B715379C20603F0EF03074A48BF43F044
:101CA000100353719379810603F0EF0348BF43F0AB
:101CB00010039371704700BF00A0064008B50E4B9B
:101CC0001B685B0500D408BD0C4B1A7802F0FF03BB
:101CD00012B101F017F8F7E7094A4FF480311160AB
:101CE000084A0949D37040F203120A604A60074A61
:101CF0001370074A137008BD3480044090E7FF1F3B
:101D000080E100E000A0064040A0044012E8FF1F70
:101D100091E7FF1F38B50446094B1B7803F0FF0518
:101D2000002BF9D120460121FFF7C4FE20462946A9
:101D3000FFF7A0FE034B53F83420034B1A6038BD65
:101D400090E7FF1F5845000014E8FF1FF8B51D4B32
:101D50001B685A05064633D51B4B1B680BB1012285
:101D60001A701A4B1C780134402C1F4628BF0024DF
:101D7000174D2B78A34218D1FFF7CCFC40280FDC7D
:101D8000144A13791B06F3D52B7813490133402BE2
:101D900028BF0023C95CDBB2C9B2D1712B70E7E761
:101DA000FF28E5DD00F0AEFFE2E70B4BF6B21E5573
:101DB0000A4B01221A70074BE4B2BC223C70DA7065
:101DC000F8BD00BF3480044014E8FF1F18E8FF1F6F
:101DD00013E8FF1F00A0064092E7FF1F90E7FF1FD8
:101DE000274B1B685A052DE9F04707468A4644D51C
:101DF000244B1B680BB101221A703D4607EB0A0306
:101E00009D4237D2DFF890801F4E98F8004096F838
:101E100000900134402C28BF00245FFA89F9A145C5
:101E20001DD11A4BBC22DA70FFF774FC40280FDC7E
:101E3000164A13791B060FD5337815490133402B09
:101E400028BF0023C95CDBB2C9B2D171337003E093
:101E5000FF2801DD00F056FF33784B45E4D00C4BF2
:101E600015F8012B1A550B4B0122E4B21A7088F8B1
:101E70000040C3E7054BBC22DA70BDE8F08700BF25
:101E80003480044014E8FF1F13E8FF1F00A0064041
:101E900092E7FF1F90E7FF1F18E8FF1F08B5034BED
:101EA0001B7813B100F02EFFF9E708BD90E7FF1F84
:101EB000064A074B1B781078DBB2C0B283422CBFB6
:101EC0003F3000F1FF30C01A704700BF13E8FF1F1A
:101ED00018E8FF1F054B1878054B1B78C0B2DBB222
:101EE000984238BF4030C01A704700BF12E8FF1F49
:101EF00091E7FF1F094B0A4A19781378DBB2994220
:101F000008D00133402B28BF00230649C85CDBB250
:101F1000137070474FF0FF30704700BF12E8FF1F8B
:101F200091E7FF1FD2E7FF1F084B1A78084B1B7879
:101F3000DBB29A4207D00133402B28BF0023054A69
:101F4000D05CC0B270474FF0FF30704712E8FF1FFF
:101F500091E7FF1FD2E7FF1F0A4B1B685B050FD5F8
:101F6000094BDA7802F0CB02DA7040225A74DA7840
:101F700042F03402DA70054B1A78054BD2B21A706F
:101F8000704700BF3480044000A0064091E7FF1F67
:101F900012E8FF1F30B5304B1A7912F0300F23D002
:101FA00072B69A7D02F0FF0122B9DA7940225A74A2
:101FB00062B619E062B6294B29481A780478D2B281
:101FC000E4B21846244BDD79531C402B28BF002374
:101FD000A342EDB202D0234AD5541A464B1E13F049
:101FE000FF01EFD1D2B202701B4BD978C9B20C06F7
:101FF00020D51B7918061DD51B4B1C4A1D7813785C
:10200000EDB2DBB21046AB420CD0134A0133402B89
:102010001479174C28BF0023E45CE4B2D471127D1C
:10202000072AF0D9DBB203700B4B1A79120644BFB2
:102030007C22DA704B060ED5074B1A7912F0400F4E
:10204000194608D00B4B00221A700B4B1B6803B1CA
:102050001A703C23CB7030BD00A0064012E8FF1F71
:1020600091E7FF1FD2E7FF1F18E8FF1F13E8FF1FCC
:1020700092E7FF1F90E7FF1F14E8FF1FF0B50C4B1E
:102080000C4C1A7842F0020504EBC50682F00102FE
:10209000706009481A700678002E0CBF8827C82780
:1020A00086F0010647EA0141067044F83510F0BD9C
:1020B00084E8FF1F00E0FF1FFCE8FF1F431E032B07
:1020C00010B510D872B6094A52F8230048B14168D9
:1020D00042F82310064A018832F81340611A22F8A8
:1020E000131062B610BD002010BD00BF74E8FF1FC2
:1020F0003CEAFF1F013803280AD872B6054B53F893
:102100002030002013B101305B68FBE762B67047F6
:1021100000207047C8E8FF1F10B572B60123174AA8
:102120001A4412F8012C12071CD59900144A52F8CF
:1021300031402CB902EB431308305860114B09E0D1
:1021400041F0010152F8314064B902EBC10308309B
:1021500058600D4B42F831300C4B1A78013A1A7026
:1021600062B610BD0133052BD9D162B6074B0022F0
:102170001A70BDE8104000F09DBB00BF9046000003
:1021800000E0FF1F88004000C8004000F2E8FF1F89
:10219000431E032B30B532D8194A400140F01000DD
:1021A000104472B6174CE25C032A09D8DFE802F04B
:1021B000160218050830022213E00830042210E04D
:1021C0001148124A50F8234014B940F8231002E095
:1021D00052F82300416042F823100FE0032200E090
:1021E0000522E25410F0080F01F108030A88436049
:1021F0000CBF8823C82343EA0243036062B630BDA4
:1022000000E0FF1F30E8FF1FC8E8FF1FD8E8FF1FEE
:102210002DE9F84FAB4F3C78E4B214F0040F3D4683
:1022200019D0A94B1B78A3B1A84A117801F0FF037C
:1022300021B1013BDBB2137003B900BEA44A11788F
:1022400001F0FF0329B1013BDBB213700BB900F0C1
:1022500045FC04233B7004F0080303F0FF02002B4D
:1022600000F063829B4B9C4C1A78D2B215094FEA5E
:10227000920840F0E08104EBC803596854F8383004
:10228000C3F38303013B0C2B00F2D281DFE813F090
:1022900091019101D001D001D001D001D001D00134
:1022A000AC01D001D001D0010D008C4D0A684B6803
:1022B0008B486B6001218B4B44F838302A60DFF883
:1022C0005082017092B240F2816000238242C8F8CD
:1022D00000302361A36117D8B2F5D06F80F01E8162
:1022E000B2F5817F00F0CF8006D8802A00F0BA8056
:1022F000822A00F0BB802DE140F202339A4200F0C6
:10230000D180B2F5A06F1CE042F22100824200F0C1
:102310004D810ED8B2F5086F00F09E80B2F5106FB7
:1023200040F01881684B6C4EAA781A7006F180094B
:102330000AE042F221218A4200F0088142F2213370
:102340009A4200F00B8105E1336A1B0603D5706ADF
:10235000083800F0AFFA08364E45F5D10026B146F0
:10236000DFF8B0A156F80A0028B1D0F804B000F0A8
:10237000A1FA5846F8E74AF806005B4BDFF898A147
:10238000F05056F80A0028B1D0F804B000F092FAE4
:102390005846F8E7554B4AF80600F050544B23F8DE
:1023A0001900544B19F80320023A032A08D8DFE831
:1023B00002F002040204002200E0012203F80920D6
:1023C00009F10109B9F1040F06F10406C8D14A4B1D
:1023D00000221A7001269A46484A494B3244334437
:1023E00012F8012C9B0012F0080F1A704FEA8609B0
:1023F00025D000F041FA38B104EB4613083058609C
:10240000404B44F8393006E09AF8003044F839007F
:1024100001338AF8003000F02FFA49F0010338B197
:1024200004EBC302083050602E4A44F8332006E023
:1024300044F833009AF8003001338AF8003049F04C
:102440000202013649F003090023052E44F8323018
:1024500044F83930C0D182E01B4B2B4C1B782370E1
:102460000B467FE0284C237063707AE0AA88042A28
:1024700070D8254C920023706370244B9B5C9E07A0
:102480006FD521706DE0AA8802F07F03042B61DC18
:102490006B88002B5ED191001C4A0A44117821F010
:1024A000020155E0AA8802F07F03042B52DC6B88FE
:1024B000002B4FD19100154A0A44117841F00201D6
:1024C00046E000BF80200740FBE8FF1F85E8FF1FB4
:1024D000FDE8FF1F9020074000E0FF1FE8E8FF1F16
:1024E000FCE8FF1FC800400020E8FF1FD8E8FF1FDE
:1024F0003CEAFF1F30E8FF1FF2E8FF1F9046000094
:1025000030C8011088004000F3E8FF1FC0200740DA
:102510001CE8FF1F74E8FF1FC8E8FF1F6A88A9882E
:102520009D4B53F8084CA3F10C009CB133F80C6C94
:10253000964209D133F80A6C8E4205D1120A032A59
:102540000CBF237803890DE00C33EAE7A978934A9E
:10255000117004E0924B0F221A7027E000231C46F2
:1025600000E00223EE88B34238BF1E46402E34BF3F
:102570003546402520462946FFF780FD761B2C4432
:1025800003D1402D12D1354603E0402E34BF3546ED
:10259000402520462946FFF771FD761B2C4401D1CA
:1025A000402D03D17F4AC8F80040168001227E4B9F
:1025B0003DE07E4B1A8842F221039A4210D100235B
:1025C0007B4AC85C98540133072BF9D11368862BDA
:1025D00002D1784B0F221A7000200146FFF74EFD02
:1025E000754B44F8383023E0744E3568B5B1DFF8E8
:1025F000B481B8F80090B9F1400F34BF4C46402484
:1026000028462146FFF73AFDC4EB09039BB2A8F820
:1026100000300BB9402C00D12B193360634B1A8862
:10262000B2F5A06F04D100225A709A78644B1A70E8
:1026300001225D4B6CE004EBC806013D736802F0BB
:102640000802A3F10800EDB202F0FF01002A36D023
:1026500000F030F95B485C4B50F82520EAB1516836
:1026600040F8251002F108017160595D03290BD86B
:10267000DFE801F002040608032104E0022102E081
:10268000052100E00421595516F0080F12880CBFEF
:102690008823C82343EA024342E05A5D032A07D84D
:1026A000DFE802F040400204002206E0012204E0DC
:1026B00016F0080F0CBF022203225A5532E054F8DC
:1026C0003820120C23F8082C22B3DFF82CE123F871
:1026D000061C43F8041C5EF825303C4913B94EF83B
:1026E000250002E051F825305860394B41F82500AB
:1026F00033F815100A4423F8152000F0BDF810B186
:102700000830706006E0334B44F838001A78013224
:102710001A7007E0284B304A16F0080F08BF13461E
:1027200044F8383008233B7074E5E0071FD51E4994
:1027300029482A4C02230B70294B1A70294B186028
:1027400098602948D8601A619A615C60144B0D202A
:1027500018702648FF2303702B700274244A1370EC
:10276000244B9F221A7001230B70BDE8F88F2106BD
:1027700004D50B4B0D221A7080232B70A20705D5B0
:102780001A4B1A78D2B21A7002232B70E30644BF98
:1027900010232B70BDE8F88FA04600000CE9FF1F46
:1027A000C0200740F0E8FF1F94200740E8E8FF1F23
:1027B00044EAFF1F85E8FF1FC80040001CE8FF1F18
:1027C00098200740C8E8FF1F30E8FF1F20E8FF1FE0
:1027D0003CEAFF1FF2E8FF1F8800400034E8FF1FBB
:1027E00084E8FF1F00E0FF1F88E8FF1F88200740E4
:1027F0008C2007408420074074E8FF1F08B500F0D4
:1028000095FE0022184B0021D15098180832882AD2
:102810004160F7D1154A106840F48020106002F53D
:1028200028326832C3F307201070C3F307401B0E31
:1028300010751376FF2302F81C3C02F8143C02F8D2
:102840008C3C012302F8083C82F8641002F8183C22
:10285000074B70221A70A3F21F3308221A60054B2F
:1028600010221A7008BD00BF00E0FF1F3480044032
:1028700023E400E00821074072B60C4A1168B1FA5F
:1028800081F30B2B02D962B6002070474FF0004055
:10289000D84021EA0001116062B60549482253433D
:1028A000C8180022CA504260704700BF68E5FF1F89
:1028B00000E2FF1F0C4B4822C31AB3FBF2F30B2BB1
:1028C00011D80A4A127822B1094A12780AB1FFF7E0
:1028D00023BC72B6074A4FF0004121FA03F3116896
:1028E0001943116062B6704700E2FF1FF2E8FF1F54
:1028F000FBE8FF1F68E5FF1F10B5104C23686BB1A4
:1029000020684288531C0244147A0288934212D3EE
:10291000FFF7D0FF094B00221A600DE0084B1B782F
:1029200013B94FF0FF3010BD0320FFF7C7FB206045
:102930000028E5D1F5E74380204610BD08E9FF1FD8
:10294000FBE8FF1F10B50B4C236813B123686BB96C
:1029500002E0094B1B7813B94FF0FF3010BD032084
:10296000FFF7ACFB20600028F0D1F5E75A8813444C
:10297000187A10BD08E9FF1FFBE8FF1F044B988879
:10298000044B1B681BB11A885B88D31A1844704724
:102990003CEAFF1F08E9FF1F2DE9F8432D4E0123F4
:1029A00007460C463370002C4FD02B4D2B68A946A0
:1029B0002BBB44F2A578294B1B7803F0FF020BB91F
:1029C000327015E00420FFF795FB072808D8012393
:1029D0003370FFF751FFC9F8000080B91D4B187024
:1029E000B8F101081E4B01D01A782AB101221A70E1
:1029F0004FF0FF30BDE8F88300F084F9DBE7296889
:102A0000174A488800231370C0F14002944238BF2F
:102A1000224600F1080C10448C444880A41A9342CA
:102A200004D0F85C0CF803000133F8E71F444B882E
:102A30003F2B06D940230B800420FFF7A9FB00237E
:102A40002B60084B05221A70ADE734702046BDE8B4
:102A5000F88300BFFEE8FF1F00E9FF1FFBE8FF1F30
:102A600004E9FF1FFDE8FF1F07B502AB012103F8D2
:102A7000010D1846FFF790FF03B05DF804FBFFFF60
:102A80002DE9F041114B1B78F3B1114E114B346815
:102A9000114D01271F7098464CB1002763882F7095
:102AA000042023802146FFF773FB376009E0FFF71E
:102AB000E3FE014620B104202C70FFF769FB00E023
:102AC0002F70002388F80030BDE8F081FBE8FF1F7D
:102AD00000E9FF1FFEE8FF1FFDE8FF1F38B50E4BA2
:102AE0001B7803F0FF05ABB90C4C216831B14B8862
:102AF0000B800420FFF74CFB256038BDFFF7BCFEC0
:102B0000014620B10420BDE83840FFF741BB044B2B
:102B100001221A7038BD00BFFEE8FF1F00E9FF1F49
:102B2000FDE8FF1F08B5FDF79DFCFDF731FD00F046
:102B3000E9F8FAE707B5064B1B88ADF804300368DF
:102B400001A95B680222984703B05DF804FB00BF4F
:102B50006846000070B505468AB022B90368C9B25C
:102B60001B6898472CE0012A08BF0A2221B93022AD
:102B70008DF82520212413E02124B1FBF2F002FB83
:102B80001011C9B209290AAE94BF30313731264439
:102B9000C9B206F8241C014610B1013CE4B2ECE7CE
:102BA00033B1013CE4B20AAB23442D2203F8242CB8
:102BB0002B6801A95B6828462144C4F1220298478A
:102BC0000AB070BDFFFFFFFF2DE9F34780461446B2
:102BD0001D4610461946002200239DF8289001F05A
:102BE0005DFA20B105F100473D46012600E00646AA
:102BF000334B00270022F9B249450AD21046194644
:102C00002DA3D3E9002300F0D7FF013702460B467E
:102C1000F1E72046294600F01DFE0D46044601F06E
:102C200065FA07463346404639460A22FFF792FFC7
:102C30000646B9F1000F3BD0384600F047FFB9F126
:102C4000070F28BF4FF007090B46024629462046CA
:102C500000F0FEFD09F101092E238DF800305FFA26
:102C600089F94FF0010A0022164B00F0A5FF0D462E
:102C7000044601F03BFA02AB5344C0B200F130020B
:102C800003F8082C00F032FF0AF1010702460B4658
:102C9000FFB22046294600F0DBFD4F4501D0BA4681
:102CA000E1E7D8F8003040465B6869464A469847F5
:102CB000304602B0BDE8F0879A9999999999B93F41
:102CC0000000E03F00002440FFF758BEFFF714BEAD
:102CD000FFF738BEFFF7D4BE0846FFF7C5BE08466B
:102CE0001146FFF759BE7047044B00221A714FF48A
:102CF0007A711A73024A99601A60704710E9FF1FCF
:102D00007846000010B50E4C2378BBB90123237020
:102D1000FFF734FE08B1FFF7E6FFFFF7DBF808B175
:102D200000F09EFC00F09AF908B100F00BFD00F0F5
:102D30005BFB08B100F078FD0023237010BD00BFDD
:102D400020E9FF1F1B4B60221A70E1225A701A4BB8
:102D50001A4A19781A4B082901D1002102E00A29E0
:102D600003D138211160132205E00C290CBF342156
:102D70003C21116012221A60124B1A78124B02B1D8
:102D800001221A60114B1A78114B012A01D88022B6
:102D90000BE0042A01D8842207E0082A01D8852202
:102DA00003E0102A94BF862287221A60094B012271
:102DB0001A707047004007406CE5FF1F08B00340E1
:102DC0000CB0034022E9FF1F20B003406DE5FF1F58
:102DD00024B0034021E9FF1F10B50023B0FBF2F43B
:102DE00002FB1400092894BF30303730C0B2C854F9
:102DF00020460CB10133F1E7CA18547022469A42BA
:102E000006DA885CCC5C8C54C8540132013BF6E78E
:102E1000084610BD164B1A6842F400621A60154A43
:102E200000231370144A1370144A1370144A137059
:102E3000144A1370144A40F2133111604FF4517167
:102E40005160124AC0F344311170C0F3471100F0D1
:102E50001F0051709072937013742C23D3700C4B1D
:102E600040221A70A3F212334FF480221A60704786
:102E7000348004408DE9FF1F24E9FF1F94E9FF1F00
:102E80008EE9FF1F23E9FF1F0CB0044000B006408D
:102E900012E400E0134A937800F0030103F0EC031E
:102EA0000B43410748BF43F01003937000F00F033A
:102EB000042B0C4903D18B7943F040038B71537978
:102EC000C20603F0EF03074A48BF43F010035371F3
:102ED0009379810603F0EF0348BF43F01003937129
:102EE000704700BF00B0064008B50E4B1B681B05BD
:102EF00000D408BD0C4B1A7802F0FF0312B1FFF7A3
:102F000001FFF7E7094A4FF480211160084A094997
:102F1000D37040F203120A604A60074A1370074AEE
:102F2000137008BD3480044023E9FF1F80E100E0F6
:102F300000B006400CB004408DE9FF1F24E9FF1FDC
:102F400038B50446094B1B7803F0FF05002BF9D177
:102F500020460121FEF7AEFD20462946FEF78AFDF8
:102F6000034B53F83420034B1A6038BD23E9FF1F8D
:102F70005845000090E9FF1FF8B51D4B1B681A0566
:102F8000064633D51B4B1B680BB101221A701A4B36
:102F90001C780134282C1F4628BF0024174D2B789D
:102FA000A34218D1FEF7B6FB40280FDC144A137970
:102FB0001B06F3D52B7813490133282B28BF002398
:102FC000C95CDBB2C9B2D1712B70E7E7FF28E5DD40
:102FD000FFF798FEE2E70B4BF6B21E550A4B0122B3
:102FE0001A70074BE4B2AC223C70DA70F8BD00BF37
:102FF0003480044090E9FF1F94E9FF1F8EE9FF1F12
:1030000000B0064025E9FF1F23E9FF1F38B504463D
:103010004518AC4204D014F8010BFFF7ADFFF8E7F8
:1030200038BDFFFF08B5034B1B7813B1FFF76AFEED
:10303000F9E708BD23E9FF1F064A074B1B78107804
:10304000DBB2C0B283422CBF273000F1FF30C01A80
:10305000704700BF8EE9FF1F94E9FF1F054B1878EA
:10306000054B1B78C0B2DBB2984238BF4030C01A63
:10307000704700BF8DE9FF1F24E9FF1F094B0A4A73
:1030800019781378DBB2994208D00133402B28BF5E
:1030900000230649C85CDBB2137070474FF0FF3065
:1030A000704700BF8DE9FF1F24E9FF1F4DE9FF1F97
:1030B000084B1A78084B1B78DBB29A4207D00133D1
:1030C000402B28BF0023054AD05CC0B270474FF0A8
:1030D000FF3070478DE9FF1F24E9FF1F4DE9FF1FF7
:1030E000024B1A78024BD2B21A70704724E9FF1FC4
:1030F0008DE9FF1F10B5214B1A7992060FD5204A92
:10310000D87913781F490133402B097828BF002351
:103110008B42C0B203D01C49C854DBB21370174AAB
:10312000D178C9B20C0616D51379180613D5174BEA
:1031300017481C780378DBB29C4202D16C23D37011
:1031400009E00133282B28BF0023124CE45CDBB2DA
:10315000E4B2D47103704B060ED5084B1A7912F005
:10316000400F194608D00C4B00221A700B4B1B68FD
:1031700003B11A702C23CB7010BD00BF00B0064005
:103180008DE9FF1F24E9FF1F4DE9FF1F94E9FF1F91
:103190008EE9FF1F25E9FF1F23E9FF1F90E9FF1FAD
:1031A000164B1A6842F480521A60154A00231370B5
:1031B000144A1370144A1370144A1370144A13708B
:1031C000144A40F2133111604FF451715160124AA8
:1031D000C0F344311170C0F3471100F01F0051706B
:1031E0009072937013742C23D3700C4B40221A707E
:1031F000A3F545734FF480121A6070473480044081
:10320000FFE9FF1F96E9FF1F08EAFF1F00EAFF1F03
:1032100095E9FF1F08C0044000C0064014E400E028
:10322000134A937800F0030103F0EC030B434107CA
:1032300048BF43F01003937000F00F03042B0C49B8
:1032400003D18B7943F040038B715379C20603F0AD
:10325000EF03074A48BF43F0100353719379810687
:1032600003F0EF0348BF43F010039371704700BFB2
:1032700000C0064008B50E4B1B68DB0400D408BD37
:103280000C4B1A7802F0FF0312B1FFF73BFDF7E792
:10329000094A4FF480111160084A0949D37040F27D
:1032A00003120A604A60074A1370074A137008BD88
:1032B0003480044095E9FF1F80E100E000C0064033
:1032C00008C00440FFE9FF1F96E9FF1F38B5044618
:1032D000094B1B7803F0FF05002BF9D12046012193
:1032E000FEF7E8FB20462946FEF7C4FB034B53F8E4
:1032F0003420034B1A6038BD95E9FF1F5845000084
:1033000004EAFF1FF8B51D4B1B68DA04064633D5E7
:103310001B4B1B680BB101221A701A4B1C7801342D
:10332000282C1F4628BF0024174D2B78A34218D104
:10333000FEF7F0F940280FDC144A13791B06F3D589
:103340002B7813490133282B28BF0023C95CDBB23B
:10335000C9B2D1712B70E7E7FF28E5DDFFF7D2FC9A
:10336000E2E70B4BF6B21E550A4B01221A70074BCF
:10337000E4B2AC223C70DA70F8BD00BF3480044087
:1033800004EAFF1F08EAFF1F00EAFF1F00C0064013
:1033900097E9FF1F95E9FF1F38B504464518AC4271
:1033A00004D014F8010BFFF7ADFFF8E738BDFFFFBD
:1033B00008B5034B1B7813B1FFF7A4FCF9E708BD70
:1033C00095E9FF1F064A074B1B781078DBB2C0B2A5
:1033D00083422CBF273000F1FF30C01A704700BF76
:1033E00000EAFF1F08EAFF1F054B1878054B1B7802
:1033F000C0B2DBB2984238BF4030C01A704700BF3D
:10340000FFE9FF1F96E9FF1F094B0A4A1978137855
:10341000DBB2994208D00133402B28BF0023064974
:10342000C85CDBB2137070474FF0FF30704700BFCD
:10343000FFE9FF1F96E9FF1FBFE9FF1F084B1A783E
:10344000084B1B78DBB29A4207D00133402B28BFD0
:103450000023054AD05CC0B270474FF0FF30704780
:10346000FFE9FF1F96E9FF1FBFE9FF1F024B1A7814
:10347000024BD2B21A70704796E9FF1FFFE9FF1F97
:1034800010B5214B1A7992060FD5204AD8791378B6
:103490001F490133402B097828BF00238B42C0B25B
:1034A00003D01C49C854DBB21370174AD178C9B293
:1034B0000C0616D51379180613D5174B17481C7828
:1034C0000378DBB29C4202D16C23D37009E0013354
:1034D000282B28BF0023124CE45CDBB2E4B2D47189
:1034E00003704B060ED5084B1A7912F0400F19469F
:1034F00008D00C4B00221A700B4B1B6803B11A70DA
:103500002C23CB7010BD00BF00C00640FFE9FF1F99
:1035100096E9FF1FBFE9FF1F08EAFF1F00EAFF1F30
:1035200097E9FF1F95E9FF1F04EAFF1F1FB572B659
:10353000154B70221A70154A412111700F2102F8A3
:10354000011C80221A701A781206FCD5104B1868DC
:1035500062B6104B984298BF0A2301AC98BF5843FB
:1035600021460A22FFF738FC0023E15C0A4A29B110
:1035700002EB430001330A2B4180F6D101335B009B
:10358000137004B010BD00BF0000024007000240ED
:10359000080002407F969800F6E5FF1F08B5036813
:1035A000C9B21B68984708BD08B50368C9B21B6853
:1035B000984708BD08B50368C9B21B68984708BD9D
:1035C00008B50368C9B21B68984708BD4B0803F1EA
:1035D000377000F5D840B0FBF1F0FEF7FFBA10B538
:1035E0004B0803F1377000F5D8401446B0FBF1F0FA
:1035F000FEF7F4FA2046BDE81040FEF735BBFEF7B3
:103600005DBB0846FEF786BBFEF764BCFEF78CBCCC
:10361000FEF770BCFEF742BCFEF79EBCFEF748BC4E
:1036200008B50846FEF792FB012008BD08B508461C
:10363000FEF78CFB012008BD10B508461446114664
:10364000FEF7CEFB204610BD38B508460D4600F00B
:103650003AFF044621462846FEF7C2FB204638BD05
:103660007047FFFF044B00221A714FF47A711A73EE
:10367000024A99601A6070470CEAFF1FF04600008A
:1036800008B50368C9B21B68984708BD08B5036848
:10369000C9B21B68984708BD08B50368C9B21B6862
:1036A000984708BD08B50368C9B21B68984708BDAC
:1036B0004B0803F1377000F5D840B0FBF1F0FFF78D
:1036C000A9BB10B54B0803F1377000F5D84014467C
:1036D000B0FBF1F0FFF79EFB2046BDE81040FFF77E
:1036E000D9BBFFF701BC0846FFF72ABCFFF7B6BC01
:1036F000FFF7DEBCFFF7C2BCFFF794BCFFF7F0BCDE
:10370000FFF79ABC08B50846FFF736FC012008BD54
:1037100008B50846FFF730FC012008BD10B5084683
:1037200014461146FFF772FC204610BD38B5084616
:103730000D4600F0C8FE044621462846FFF766FC09
:10374000204638BD7047FFFF044B00221A714FF42A
:103750007A711A73024A99601A6070471CEAFF1F57
:103760004047000008B50368C9B21B68984708BD08
:1037700008B50368C9B21B68984708BD08B5036857
:10378000C9B21B68984708BD08B50368C9B21B6871
:10379000984708BD4B0803F1377000F5D840B0FBDF
:1037A000F1F0FFF7FDBC10B54B0803F1377000F5E1
:1037B000D8401446B0FBF1F0FFF7F2FC2046BDE81C
:1037C0001040FFF72DBDFFF755BD0846FFF77EBD42
:1037D000FFF70ABEFFF732BEFFF716BEFFF7E8BDE0
:1037E000FFF744BEFFF7EEBD08B50846FFF78AFDB8
:1037F000012008BD08B50846FFF784FD012008BD7B
:1038000010B5084614461146FFF7C6FD204610BD08
:1038100038B508460D4600F056FE044621462846B7
:10382000FFF7BAFD204638BD7047FFFF044B00226A
:103830001A714FF47A711A73024A99601A607047CC
:103840002CEAFF1F9047000081F0004102E000BF1A
:1038500083F0004330B54FEA41044FEA430594EA50
:10386000050F08BF90EA020F1FBF54EA000C55EA8B
:10387000020C7FEA645C7FEA655C00F0E2804FEA5C
:103880005454D4EB5555B8BF6D420CDD2C4480EA3E
:10389000020281EA030382EA000083EA010180EA6E
:1038A000020281EA0303362D88BF30BD11F0004FBC
:1038B0004FEA01314FF4801C4CEA113102D04042F2
:1038C00061EB410113F0004F4FEA03334CEA13332D
:1038D00002D0524263EB430394EA050F00F0A78045
:1038E000A4F10104D5F1200E0DDB02FA0EFC22FA40
:1038F00005F2801841F1000103FA0EF2801843FA34
:1039000005F359410EE0A5F120050EF1200E012A24
:1039100003FA0EFC28BF4CF0020C43FA05F3C01862
:1039200051EBE37101F0004507D54FF0000EDCF1DB
:10393000000C7EEB00006EEB0101B1F5801F1BD384
:10394000B1F5001F0CD349085FEA30004FEA3C0C88
:1039500004F101044FEA445212F5800F80F09A807E
:10396000BCF1004F08BF5FEA500C50F1000041EB82
:10397000045141EA050130BD5FEA4C0C404141EB86
:10398000010111F4801FA4F10104E9D191F0000FAD
:1039900004BF01460020B1FA81F308BF2033A3F130
:1039A0000B03B3F120020CDA0C3208DD02F1140C27
:1039B000C2F10C0201FA0CF021FA02F10CE002F162
:1039C0001402D8BFC2F1200C01FA02F120FA0CFC5B
:1039D000DCBF41EA0C019040E41AA2BF01EB0451A4
:1039E000294330BD6FEA04041F3C1CDA0C340EDCA2
:1039F00004F11404C4F1200220FA04F001FA02F3E5
:103A000040EA030021FA04F345EA030130BDC4F1A2
:103A10000C04C4F1200220FA02F001FA04F340EA97
:103A20000300294630BD21FA04F0294630BD94F048
:103A3000000F83F4801306BF81F480110134013D2F
:103A40004EE77FEA645C18BF7FEA655C29D094EAA0
:103A5000050F08BF90EA020F05D054EA000C04BF1E
:103A60001946104630BD91EA030F1EBF0021002009
:103A700030BD5FEA545C05D14000494128BF41F0A8
:103A8000004130BD14F580043CBF01F5801130BD0C
:103A900001F0004545F0FE4141F470014FF0000097
:103AA00030BD7FEA645C1ABF194610467FEA655C48
:103AB0001CBF0B46024650EA013406BF52EA0335EA
:103AC00091EA030F41F4002130BD00BF90F0000FD8
:103AD00004BF0021704730B54FF4806404F1320414
:103AE0004FF000054FF0000150E700BF90F0000FCD
:103AF00004BF0021704730B54FF4806404F13204F4
:103B000010F0004548BF40424FF000013EE700BFC3
:103B100042004FEAE2014FEA31014FEA02701FBF53
:103B200012F07F4393F07F4F81F06051704792F025
:103B3000000F14BF93F07F4F704730B54FF460749F
:103B400001F0004521F0004120E700BF50EA0102EA
:103B500008BF704730B54FF000050AE050EA010297
:103B600008BF704730B511F0004502D5404261EB07
:103B700041014FF4806404F132045FEA915C3FF448
:103B8000DCAE4FF003025FEADC0C18BF03325FEAE1
:103B9000DC0C18BF033202EBDC02C2F1200300FA96
:103BA00003FC20FA02F001FA03FE40EA0E0021FABB
:103BB00002F11444C1E600BF70B54FF0FF0C4CF4A5
:103BC000E06C1CEA11541DBF1CEA135594EA0C0F5B
:103BD00095EA0C0F00F0DEF82C4481EA030621EA96
:103BE0004C5123EA4C5350EA013518BF52EA0335D1
:103BF00041F4801143F4801338D0A0FB02CE4FF083
:103C00000005E1FB02E506F00042E0FB03E54FF0B2
:103C10000006E1FB03569CF0000F18BF4EF0010EAA
:103C2000A4F1FF04B6F5007F64F5407404D25FEAA6
:103C30004E0E6D4146EB060642EAC62141EA555159
:103C40004FEAC52040EA5E504FEACE2EB4F1FD0C9B
:103C500088BFBCF5E06F1ED8BEF1004F08BF5FEA19
:103C6000500E50F1000041EB045170BD06F00046CB
:103C700046EA010140EA020081EA0301B4EB5C0478
:103C8000C2BFD4EB0C0541EA045170BD41F4801170
:103C90004FF0000E013C00F3AB8014F1360FDEBF95
:103CA000002001F0004170BDC4F10004203C35DA71
:103CB0000C341BDC04F11404C4F1200500FA05F3F4
:103CC00020FA04F001FA05F240EA020001F0004295
:103CD00021F0004110EBD37021FA04F642EB06010B
:103CE0005EEA430E08BF20EAD37070BDC4F10C0435
:103CF000C4F1200500FA04F320FA05F001FA04F2F9
:103D000040EA020001F0004110EBD37041F10001E4
:103D10005EEA430E08BF20EAD37070BDC4F12005EF
:103D200000FA05F24EEA020E20FA04F301FA05F257
:103D300043EA020321FA04F001F0004121FA04F2FF
:103D400020EA020000EBD3705EEA430E08BF20EACF
:103D5000D37070BD94F0000F0FD101F00046400009
:103D600041EB010111F4801F08BF013CF7D041EA8B
:103D7000060195F0000F18BF704703F0004652008F
:103D800043EB030313F4801F08BF013DF7D043EA60
:103D90000603704794EA0C0F0CEA135518BF95EA16
:103DA0000C0F0CD050EA410618BF52EA4306D1D19D
:103DB00081EA030101F000414FF0000070BD50EABC
:103DC000410606BF1046194652EA430619D094EA46
:103DD0000C0F02D150EA013613D195EA0C0F05D130
:103DE00052EA03361CBF104619460AD181EA030184
:103DF00001F0004141F0FE4141F470014FF000003C
:103E000070BD41F0FE4141F4780170BD70B54FF0D6
:103E1000FF0C4CF4E06C1CEA11541DBF1CEA135556
:103E200094EA0C0F95EA0C0F00F0A7F8A4EB050438
:103E300081EA030E52EA03354FEA013100F088802F
:103E40004FEA03334FF0805545EA131343EA1263F8
:103E50004FEA022245EA111545EA10654FEA0026AD
:103E60000EF000419D4208BF964244F1FD0404F566
:103E7000407402D25B084FEA3202B61A65EB0305C2
:103E80005B084FEA32024FF480104FF4002CB6EB7F
:103E9000020E75EB030E22BFB61A754640EA0C00FF
:103EA0005B084FEA3202B6EB020E75EB030E22BF3F
:103EB000B61A754640EA5C005B084FEA3202B6EB80
:103EC000020E75EB030E22BFB61A754640EA9C003F
:103ED0005B084FEA3202B6EB020E75EB030E22BF0F
:103EE000B61A754640EADC0055EA060E18D04FEACD
:103EF000051545EA16754FEA06164FEAC30343EA6D
:103F000052734FEAC2025FEA1C1CC0D111F4801F39
:103F10000BD141EA00014FF000004FF0004CB6E732
:103F200011F4801F04BF01430020B4F1FD0C88BFD1
:103F3000BCF5E06F3FF6AFAEB5EB030C04BFB6EBDC
:103F4000020C5FEA500C50F1000041EB045170BDCF
:103F50000EF0004E4EEA113114EB5C04C2BFD4EBFC
:103F60000C0541EA045170BD41F480114FF0000E80
:103F7000013C90E645EA060E8DE60CEA135594EAFC
:103F80000C0F08BF95EA0C0F3FF43BAF94EA0C0FFF
:103F90000AD150EA01347FF434AF95EA0C0F7FF474
:103FA00025AF104619462CE795EA0C0F06D152EAC8
:103FB00003353FF4FDAE1046194622E750EA4106AC
:103FC00018BF52EA43067FF4C5AE50EA41047FF4BD
:103FD0000DAF52EA43057FF4EBAE12E74FF0FF3C22
:103FE00006E000BF4FF0010C02E000BF4FF0010CF3
:103FF0004DF804CD4FEA410C7FEA6C5C4FEA430C6C
:1040000018BF7FEA6C5C1BD001B050EA410C0CBFBA
:1040100052EA430C91EA030F02BF90EA020F00201C
:10402000704710F1000F91EA030F58BF994208BF83
:1040300090422CBFD8176FEAE37040F00100704740
:104040004FEA410C7FEA6C5C02D150EA013C07D197
:104050004FEA430C7FEA6C5CD6D152EA033CD3D0E2
:104060005DF8040B704700BF8446104662468C46DC
:104070001946634600E000BF01B5FFF7B7FF00280F
:1040800048BF10F1000F01BD4DF808EDFFF7F4FF38
:104090000CBF012000205DF808FB00BF4DF808EDC3
:1040A000FFF7EAFF34BF012000205DF808FB00BFE6
:1040B0004DF808EDFFF7E0FF94BF012000205DF808
:1040C00008FB00BF4DF808EDFFF7CEFF94BF0120BD
:1040D00000205DF808FB00BF4DF808EDFFF7C4FFB6
:1040E00034BF012000205DF808FB00BF4A0011D258
:1040F00012F5001211D20DD56FF47873B3EB625242
:104100000ED44FEAC12343F0004343EA505323FA4D
:1041100002F070474FF00000704750EA013002D1C2
:104120004FF0FF3070474FF0000070474FEA4102F8
:10413000B2F1E04324BFB3F5001CDCF1FE5C0DD905
:1041400001F0004C4FEAC0024CEA5070B2F1004F4F
:1041500040EB830008BF20F00100704711F0804F52
:1041600021D113F13872BCBF01F00040704741F417
:1041700080114FEA5252C2F11802C2F1200C10FA1B
:104180000CF320FA02F018BF40F001004FEAC123FF
:104190004FEAD32303FA0CFC40EA0C0023FA02F3A3
:1041A0004FEA4303CCE77FEA625307D150EA013379
:1041B0001EBF4FF0FE4040F44000704701F0004049
:1041C00040F0FE4040F40000704700BF80F0004027
:1041D00002E000BF81F0004142001FBF5FEA4103DF
:1041E00092EA030F7FEA226C7FEA236C6AD04FEADF
:1041F0001262D2EB1363C1BFD21841404840414024
:10420000B8BF5B42192B88BF704710F0004F40F4D5
:10421000000020F07F4018BF404211F0004F41F4F1
:10422000000121F07F4118BF494292EA030F3FD0BD
:10423000A2F1010241FA03FC10EB0C00C3F12003D0
:1042400001FA03F100F0004302D5494260EB40005F
:10425000B0F5000F13D3B0F1807F06D340084FEACA
:10426000310102F10102FE2A51D2B1F1004F40EBBF
:10427000C25008BF20F0010040EA03007047490027
:1042800040EB000010F4000FA2F10102EDD1B0FAF2
:1042900080FCACF1080CB2EB0C0200FA0CF0AABFE7
:1042A00000EBC25052421843BCBFD0401843704785
:1042B00092F0000F81F4000106BF80F4000001328B
:1042C000013BB5E74FEA41037FEA226C18BF7FEA62
:1042D000236C21D092EA030F04D092F0000F08BFA4
:1042E0000846704790EA010F1CBF0020704712F08B
:1042F0007F4F04D1400028BF40F00040704712F1CA
:1043000000723CBF00F50000704700F0004343F02E
:10431000FE4040F4000070477FEA226216BF084664
:104320007FEA23630146420206BF5FEA412390EA27
:10433000010F40F4800070474FF0000304E000BF1D
:1043400010F0004348BF40425FEA000C08BF7047CE
:1043500043F0964301464FF000001CE050EA010292
:1043600008BF70474FF000030AE000BF50EA0102A7
:1043700008BF704711F0004302D5404261EB410194
:104380005FEA010C02BF84460146002043F0B643B9
:1043900008BFA3F18053A3F50003BCFA8CF2083ADE
:1043A000A3EBC25310DB01FA02FC634400FA02FCE7
:1043B000C2F12002BCF1004F20FA02F243EB0200EE
:1043C00008BF20F00100704702F1200201FA02FC50
:1043D000C2F1200250EA4C0021FA02F243EB020043
:1043E00008BF20EADC7070474FEA4002B2F1FE4F8E
:1043F0000FD34FF09E03B3EB12620DD94FEA0023A7
:1044000043F0004310F0004F23FA02F018BF40427F
:1044100070474FF00000704712F1610F01D1420266
:1044200005D110F0004008BF6FF0004070474FF01A
:104430000000704770B50E4B0E4DED1AAD10002404
:104440001E46AC4204D056F8242090470134F8E7C9
:1044500000F0C2F9084D094BED1AAD1000241E46BC
:10446000AC4204D056F8242090470134F8E770BDE0
:10447000E4470000E447000000480000E447000073
:10448000814270B501D300230EE08C18A042FAD20D
:104490008518134613F1FF3305D35142661829449A
:1044A000F65CCE54F6E770BD934203D0CC5CC454A6
:1044B0000133F9E770BD02440346934202D003F88A
:1044C000011BFAE77047034613F8012B002AFBD1C2
:1044D000181A0138704749207761732061736B6542
:1044E0006420746F2070726F7669646520616C74EB
:1044F0006974756465000110002F5E71BC93E2CD94
:1045000057780926EBC4B59A802500004038000092
:10451000004B0000807000000096000000E10000E9
:10452000AC07010000C2010048E80100008403005C
:1045300090D0030000080700000000000000000009
:10454000390E0000D50E0000750E0000890E000027
:10455000B10E0000710E00004008FE4340A0044070
:104560004408FE4344A004400018FE4300C0044039
:104570003000FE43309004403400FE433490044049
:104580001C18FE431CC004401018FE4310C0044019
:104590000818FE4308C004400C18FE430CC0044039
:1045A0000C10FE430CB004401010FE4310B0044049
:1045B0001810FE4318B004401C10FE431CB0044009
:1045C0001410FE4314B004400418FE4304C0044019
:1045D0000010FE4300B004400008FE4300A0044069
:1045E0000408FE4304A004400C08FE430CA0044051
:1045F0000808FE4308A004401418FE4314C00440F9
:104600001818FE4318C004400410FE4304B00440D0
:104610000810FE4308B004401400FE431490044008
:104620004C08FE434CA004400420FE4304D0044048
:104630002410FE4324B004402010FE4320B0044068
:104640002810FE4328B004402C10FE432CB0044038
:104650000020FE4300D004404808FE4348A0044028
:104660001000FE43109004400D0AFFFFFFFFFFFF04
:104670000000000000000000D92C0000DF2C00002A
:10468000C92C0000CD2C0000D12C0000D52C00003E
:1046900000151915000100006EE5FF1F1200000053
:1046A0000002000098E5FF1F430000000003000027
:1046B000F2E5FF1F000000000103090480E5FF1F71
:1046C0000000000002030904DCE5FF1F00000000F9
:1046D00003030904F6E5FF1F0000000000000000CE
:1046E00000000000000000000000000000000000CA
:1046F000213600003936000009360000113600006E
:104700000D36000015360000CD350000DF35000005
:10471000FF35000003360000193600001D3600008A
:104720009D350000A9350000B5350000C1350000F9
:10473000493600002D360000000000000000000097
:10474000053700001D370000ED360000F53600008B
:10475000F1360000F9360000B1360000C336000023
:10476000E3360000E7360000FD36000001370000A8
:10477000813600008D36000099360000A536000015
:104780002D3700001137000000000000000000007D
:10479000E937000001380000D1370000D9370000A8
:1047A000D5370000DD37000095370000A73700003F
:1047B000C7370000CB370000E1370000E5370000C5
:1047C00065370000713700007D3700008937000031
:1047D00011380000F5370000F8B500BFF8BC08BC80
:1047E0009E4670473504000025060000B9120000FF
:1047F000E92C000065360000493700002D38000024
:104800000C0C0000FFFF0000FFFFFFFF0A04120175
:10481000000202000040C0168304000101020301EF
:1048200018035400650065006E0073007900640091
:10483000750069006E006F0009024300020100C0AC
:1048400032090400000102020100052400100105E4
:104850002401010104240206052406000107058243
:104860000310004009040100020A000000070503CC
:1048700002400000070584024000000016035500B6
:10488000530042002000530065007200690061007F
:104890006C00040309040C03000000000000000089
:0C48A0000000000000000000000000000C
:00000001FF
